:020000040800F2
:100000002057002029030008A55F0008CD4B0008F9
:10001000A15F0008A90A0008E170000800000000C4
:10002000000000000000000000000000690200085D
:10003000BB0C000800000000C50200084564000871
:100040004303000843030008430300084303000878
:100050004303000843030008430300084303000868
:1000600043030008BD0C0008C70C00084303000848
:10007000310B000843030008410B0008430300084C
:10008000430300084303000843030008BD0A0008B7
:10009000AD0A00084303000843030008D10C000820
:1000A0004165000859650008430300084303000840
:1000B00069650008B16500084303000843030008B0
:1000C0004303000843030008430300087960000865
:1000D00043030008456F000843030008A16F0008B0
:1000E000430300084303000843030008C1650008F8
:1000F000D1650008430300084303000843030008D8
:1001000043030008430300084303000843030008B7
:1001100043030008430300084303000843030008A7
:10012000510B0008610B0008710B0008810B0008DF
:10013000430300084303000843030008DD0A0008E6
:10014000CD0A0008430300084303000843030008E6
:1001500043030008910B0008A10B0008D1700008B0
:100160004303000843030008430300084303000857
:100170004303000843030008430300080000000095
:10018000430300084303000800F002F800F05CF8A5
:100190000AA090E8000C82448344AAF10107DA45E2
:1001A00001D100F051F8AFF2090EBAE80F0013F0D8
:1001B000010F18BFFB1A43F00103184798A3000072
:1001C000B8A300000A444FF0000C10F8013B13F0F4
:1001D000070408BF10F8014B1D1108BF10F8015BA0
:1001E000641E05D010F8016B641E01F8016BF9D193
:1001F00013F0080F1EBF10F8014BAD1C0C1B09D1EA
:100200006D1E58BF01F801CBFAD505E014F8016B5B
:1002100001F8016B6D1EF9D59142D6D370470000ED
:100220000023002400250026103A28BF78C1FBD8FF
:10023000520728BF30C148BF0B6070471FB50AF096
:1002400014F91FBD10B510BD00F0E4F91146FFF719
:10025000F5FF07F0D9FE00F002FA03B4FFF7F2FF52
:1002600003BC00F005FA00002C4B19680868B0E8E0
:10027000F04F80F30988BFF36F8F4FF0000080F3D9
:10028000118870470000000008480068006880F38B
:1002900008884FF0000080F3148862B661B6BFF39F
:1002A0004F8FBFF36F8F00DF00BF00BF08ED00E08E
:1002B000DFF80C00016841F470010160704700BF75
:1002C00088ED00E0EFF30980BFF36F8F134B1A68DE
:1002D0001EF0100F08BF20ED108A20E9F04F1060CB
:1002E00009B44FF0500080F31188BFF34F8FBFF374
:1002F0006F8F09F055F94FF0000080F3118809BCA9
:1003000019680868B0E8F04F1EF0100F08BFB0EC95
:10031000108A80F30988BFF36F8F704708010020AF
:10032000EFF30580704700000948804709480047FF
:10033000FEE7FEE7FEE7FEE7FEE7FEE7FEE7FEE795
:10034000FEE7FEE704480549054A064B70470000F2
:100350002D65000889010008205100202057002049
:10036000205300202053002053EA020C00F0698043
:100370002DE9F04B4FF00006002B1FBFB3FA83F5B9
:1003800003FA05F424FA05F65E4012BF1643B2FAEA
:1003900082F502FA05F4C5F120051EBF22FA05FC1C
:1003A00044EA0C04203556EA044C4FEA144418BFC2
:1003B000641C4FF000084FF00009904271EB030CF1
:1003C00039D3002919BFB1FA81F701FA07F6B0FA5B
:1003D00080F700FA07F6C7F120071EBF20FA07FCD6
:1003E00046EA0C062037B6FBF4FCA7EB0507103FE6
:1003F00007F01F0BCBF120060CFA0BFB2CFA06F6CC
:1004000044BFB3460026202FA4BF5E464FF0000B2A
:100410005BEA060C08BF4FF0010B19EB0B09ABFBB5
:10042000027C48EB0608C01B06FB02CC0BFB03CC8E
:1004300071EB0C01C1E70B46024641464846BDE858
:10044000F08B13B54FF000004FF00001AFF30080C8
:10045000BDE81C407047032A40F2308010F0030CC6
:1004600000F0158011F8013BBCF1020F624498BF07
:1004700011F801CB00F8013B38BF11F8013BA2F1A4
:10048000040298BF00F801CB38BF00F8013B11F01F
:10049000030300F02580083AC0F0088051F8043BBF
:1004A000083A51F804CBA0E80810F5E7121D5CBF2C
:1004B00051F8043B40F8043BAFF30080D20724BF5F
:1004C00011F8013B11F801CB48BF11F8012B24BFF3
:1004D00000F8013B00F801CB48BF00F8012B704742
:1004E00010B5203AC0F00B80B1E81850203AA0E8CF
:1004F0001850B1E81850A0E81850BFF4F5AF5FEA03
:10050000027C24BFB1E81850A0E8185044BF18C9B5
:1005100018C0BDE810405FEA827C24BF51F8043B5C
:1005200040F8043B08BF7047D20728BF31F8023BB0
:1005300048BF11F8012B28BF20F8023B48BF00F844
:10054000012B704702F0FF0343EA032242EA024212
:1005500000F037B84FF0000200B5134694469646B7
:10056000203922BFA0E80C50A0E80C50B1F12001C6
:10057000BFF4F7AF090728BFA0E80C5048BF0CC074
:100580005DF804EB890028BF40F8042B08BF7047D2
:1005900048BF20F8022B11F0804F18BF00F8012B44
:1005A000704770477047704710B500F02BF800682F
:1005B00010BD10B5044600F025F8046010BD4FF0E2
:1005C00000020429C0F0128010F0030C3FF4C4AF05
:1005D000CCF1040CBCF1020F18BF00F8012BA8BF2E
:1005E00020F8022BA1EB0C01FFF7B6BF5FEAC17C3C
:1005F00024BF00F8012B00F8012B48BF00F8012BA5
:100600007047000000487047C05000200048704705
:10061000C05000207546FFF7F9FFAE460500694659
:10062000534620F00700854618B020B5FFF78AFE34
:10063000BDE820404FF000064FF000074FF00008E3
:100640004FF0000B21F00701AC46ACE8C009ACE864
:10065000C009ACE8C009ACE8C0098D46704710B5C8
:100660000446AFF300802046BDE81040FFF7F5BD1B
:1006700001491820ABBEFEE72600020070470000CB
:10068000B7EE000A80ED100A9FED060A80ED110A10
:100690009FED040A80ED120A9FED020A80ED130A15
:1006A000704700000000000010B5B6217E2000F069
:1006B0006BF80A2001F094FB04217D2000F064F81F
:1006C0000A2001F08DFB00217C2000F05DF80A205B
:1006D00001F086FB0021412000F056F80A2001F0CD
:1006E0007FFB0821532000F04FF80A2001F078FB2F
:1006F0000421582000F048F80A2001F071FB10BDD9
:100700002DE9FC4105460E46174600240022102123
:100710001B4801F08BFC45F080000190012201A9EB
:10072000184803F0A7F900BF164802F0C4FC0328DC
:10073000FAD001226946134802F040FF00BF114879
:1007400002F0B9FC0428FAD011E04FF47A730122C8
:1007500069460C4802F07AFE00BF0A4802F0ABFC82
:100760000428FAD09DF800003055601CC4B2BC4289
:10077000EBDB01221021024801F058FCBDE8FC81AE
:1007800000000240D809002013B5002210211148B2
:1007900001F04CFC012269460F4803F06BF900BFE1
:1007A0000D4802F088FC0328FAD0012201A90A486A
:1007B00003F060F900BF084802F07DFC0328FAD07E
:1007C000012001F00DFB01221021024801F02EFC56
:1007D0001CBD000000000240D809002010B5B62161
:1007E000142000F04FF81E2001F0FAFA00210F202B
:1007F00000F048F80A2001F0F3FA0021162000F07A
:1008000041F80A2001F0ECFA0121182000F03AF832
:100810000A2001F0E5FA10BD7CB505460E4600241D
:1008200000220121154801F001FC45F080000190F3
:10083000012201A9124803F01DF900BF104802F07F
:100840003AFC0328FAD011E04FF47A73012269468A
:100850000B4802F0FBFD00BF094802F02CFC042805
:10086000FAD09DF800003055601CC4B2062CEBDBBA
:1008700001221146014801F0D9FB7CBD0004024071
:10088000D809002013B5002201210F4801F0CEFB4A
:10089000012269460D4803F0EDF800BF0B4802F055
:1008A0000AFC0328FAD0012201A9084803F0E2F863
:1008B00000BF064802F0FFFB0328FAD001221146D0
:1008C000014801F0B3FB1CBD00040240D809002020
:1008D000F0B52DED068B83B005460E461746002079
:1008E00001900290062201A91220FFF709FF9DF84E
:1008F0000500000200B29DF8041040EA010400EE79
:10090000104AB8EEC00ADFED610A20EE200A85ED3C
:10091000000A9DF80700000200B29DF8061040EAA8
:10092000010400EE104AB8EEC00ADFED580A20EECE
:10093000200A85ED010A9DF80900000200B29DF829
:10094000081040EA010400EE104AB8EEC00ADFEDDC
:100950004F0A20EE200A85ED020A01A90220FFF7C6
:100960005BFF9DF80500000200B29DF8041040EA0C
:10097000010400EE104AB8EEC00ADFED450A20EE91
:10098000200A86ED000A9DF80700000200B29DF8DB
:10099000061040EA010400EE104AB8EEC00ADFED8E
:1009A0003C0A20EE200A86ED010A9DF809000002AB
:1009B00000B29DF8081040EA010400EE104AB8EEBB
:1009C000C00ADFED330A20EE200A86ED020A022279
:1009D00001A92220FFF794FE9DF80400C0009DF8B5
:1009E000051040EA6114B4F5806F02DBA4F50060E5
:1009F00004B2204609F0B6FA41EC1A0B9FED250B24
:100A000053EC102B09F0D8FA41EC190B9FED230B96
:100A100053EC102B09F0A6F841EC180B09F070F814
:100A2000386095ED000A1F48D0ED000A30EE600AEC
:100A300085ED000A95ED010AD0ED010A30EE600A5D
:100A400085ED010A95ED020AD0ED020A30EE600A4A
:100A500085ED020A96ED000AD0ED030A30EE600A39
:100A600086ED000A96ED010AD0ED040A30EE600A28
:100A700086ED010A96ED020AD0ED050A30EE600A15
:100A800086ED020A03B0BDEC068BF0BDE7416B3A80
:100A900058A08B3A000000000000C03F000000009A
:100AA000000037404050002000BFFEE710B502486C
:100AB00000F0A4FB10BD00003409002010B502486E
:100AC00000F09CFB10BD00003409002010B5024866
:100AD00000F094FB10BD00005C09002010B5024836
:100AE00000F08CFB10BD00005C090020B0EE401A45
:100AF0009FED0C0AF0EE401AB7EE000A30EE612AC4
:100B0000094890ED000A0948D0ED002A00EEA20A3B
:100B100022EE000A01EE810A034880ED000A90ED02
:100B2000000A70470AD7A33CD40200203C020020F0
:100B300010B5024800F074FF10BD0000E40D002065
:100B400010B5024800F06CFF10BD0000440E0020FC
:100B500010B5024800F064FF10BD0000300A00200C
:100B600010B5024800F05CFF10BD0000A40E00208C
:100B700010B5024800F054FF10BD0000240D002005
:100B800010B5024800F04CFF10BD0000900A002094
:100B900010B5024800F044FF10BD0000040F002013
:100BA00010B5024800F03CFF10BD0000840D00208D
:100BB0000146087810381823B0FBF3F20848805C2F
:100BC000C865032A05D908686FF30900001D886508
:100BD00003E008686FF309008865886D70470000BE
:100BE0007EA40008014600208A6A8B69CBB932B125
:100BF000012A0DD0022A03D0032A10D10EE000BF33
:100C0000CB6A03F08073B3F1807F00D1012007E04D
:100C1000CB6AB3F1C07F00D1012001E000E000BF4A
:100C200034E08B69B3F5005F1AD132B1012A07D0E5
:100C3000022A03D0032A11D10AE000BF01200EE0EE
:100C4000CB6A03F08073B3F1807F00D1012006E00E
:100C5000CB6AB3F1C07F00D1012000E000BF15E0F6
:100C600032B1012A05D0022A04D0032A0CD103E0B4
:100C700000BF00BF012008E0CB6A03F08073B3F12E
:100C8000807F00D1012000E000BF00BF704730B579
:100C90000468246824F4802405682C600468636078
:100CA0008468402C04D10468A2600468E16003E019
:100CB0000468A1600468E26030BD704710B5082088
:100CC00001F0ACF810BD10B5102001F0A7F810BD70
:100CD00010B5202001F0A2F810BD72B600BFFEE7EB
:100CE00010B59FED1B2ADFED1A1A9FED1A1ADFEDE2
:100CF000190AB3EE0E0A184807F00DFB9FED142AEF
:100D0000DFED131A9FED131ADFED120AB3EE0E0A90
:100D10001148343007F0FFFA9FED0D2ADFED0C1A71
:100D20009FED0C1ADFED0B0AB3EE040A0A48683097
:100D300007F0F1FA9FED062ADFED051AB7EE001A6B
:100D4000DFED040AB0EE000A044807F0E4FA10BD33
:100D50000000804600000000D8030020E84E00207C
:100D6000FFF7BEFF07F038F908F07EF900BF022058
:100D700007F0A8F908F016F907F090F908F0FCF868
:100D8000F5E7000010B51148007801281CD1104883
:100D90000078012802D10E4807F028FF00200B49F7
:100DA000087000BF04E00021094A1154411CC8B278
:100DB000084909788842F6DB002006490870642259
:100DC0000349054803F0DEFE10BD0000B10100201C
:100DD000204D0020B0010020580C002010B5024624
:100DE00092F82030012B01D0022B06D11068406907
:100DF000084314686061002010BD506A40F48020F0
:100E000050620120F8E7F0B504460D461E4694F8FE
:100E1000207020688368A86800B900E000BF012F37
:100E200001D0022F7CD103F0806030B903F0006064
:100E300018B903F08050002873D0C3F30161022970
:100E400005D9606A40F4000060620120F0BD012015
:100E500088403060A86860B9B5F800C0E86840EA2A
:100E60004C5C206800F5C07000EB0110C0F800C0B9
:100E70000FE0D5E901C040EACC00D5F80CC040EA4B
:100E80000C00D4F800C00CF5C07C0CEB011CCCF8B5
:100E90000000D5F810C0206800F5C07000EB01100C
:100EA000C0F804C0287D01280ED1206800F5C0706C
:100EB00000EB0110406840F4807C206800F5C070B1
:100EC00000EB0110C0F804C0D079000692F806C00B
:100ED00040EA0C4092F805C040EA0C2C10794CEA2C
:100EE000000C206800F5C07000EB0110C0F80CC0C9
:100EF000D078000692F802C040EA0C4092F801C097
:100F000040EA0C2092F800C040EA0C00D4F800C07F
:100F10000CF5C07C0CEB011CCCF80800206801E04B
:100F200016E00FE000F5C07000EB0110006840F023
:100F3000010C206800F5C07000EB0110C0F800C083
:100F4000002083E7606A40F40010606201207DE7C2
:100F5000606A40F480206062012077E7F0B50446C3
:100F60000A46216894F82050012D01D0022D7ED12F
:100F7000424901F50071086840F001000860086806
:100F800020F47C5008600868566A40EA0620086031
:100F9000107D00F01F06012000FA06F3C86998438F
:100FA000C861A1F50071D069C8B9D1F80C029843A5
:100FB000C1F80C02908880B2968940EA064601F595
:100FC0001070576940F83760108880B2168940EA7F
:100FD000064601F51070576900EBC7004660D069FE
:100FE000012819D1D1F80C021843C1F80C029088DD
:100FF00080B2168840EA064601F51070576940F83D
:101000003760908980B2168940EA064601F5107073
:10101000576900EBC7004660906928B9D1F804020F
:101020009843C1F8040204E0D1F804021843C1F85F
:101030000402106928B9D1F814029843C1F81402C7
:1010400004E0D1F814021843C1F81402106A012810
:1010500004D1D1F81C021843C1F81C02D1F80002D7
:1010600020F00100C1F800020020F0BDFFE7606A37
:1010700040F4802060620120F7E700000064004037
:10108000704770B5044694F82050012D01D0022D10
:101090007DD151B92068C06800F0030080B9606A52
:1010A00040F400106062012070BD2068006900F00B
:1010B000030028B9606A40F4001060620120F3E781
:1010C000206800F5D87000EB0110006800F0040003
:1010D0009060906840B9206800F5D87000EB01106E
:1010E0000068400D106007E0206800F5D87000EB44
:1010F00001100068C0085060206800F5D87000EB4F
:101100000110006800F00200D060206800F5D8707F
:1011100000EB0110406800F00F001061206800F53E
:10112000D87000EB0110406800F47F40000A906125
:10113000206800F5D87000EB01104068000C506189
:10114000206800F5D87000EB0110806818702068E6
:1011500000F5D87000EB0110806800F47F40000AB1
:101160005870206800F5D87000EB0110806800F41A
:101170007F00000C9870206800F5D87000EB01101B
:101180008068000ED870206800F5D87000E02FE06D
:1011900000EB0110C0681871206800F5D87000EBF2
:1011A0000110C06800F47F40000A5871206800F503
:1011B000D87000EB0110C06800F47F00000C98713B
:1011C000206800F5D87000EB0110C068000ED871DF
:1011D00031B92068C06840F020002668F06005E062
:1011E0002068006940F020002668306100205BE73D
:1011F000606A40F480206062012055E72DE9F05FCD
:1012000004460025206846692068D0F804902068CC
:1012100087682068D0F80CA02068D0F810B020684B
:10122000D0F8188006F00100002855D007F0010022
:10123000C0B101202168886007F0020018B1204683
:1012400000F07DFB0EE007F0040010B145F40065EE
:1012500008E007F0080010B145F4805502E0204690
:1012600000F06CFB07F48070C8B14FF48070216807
:10127000886007F4007018B1204600F062FB0EE0B1
:1012800007F4806010B145F4005508E007F40060F1
:1012900010B145F4804502E0204600F051FB07F410
:1012A0008030C8B14FF480302168886007F4003086
:1012B00018B1204600F047FB0EE007F4802010B183
:1012C00045F4004508E007F4002010B145F48035EE
:1012D00002E0204600F036FB06F0080038B10AF0C4
:1012E000100020B145F4007510202168C86006F098
:1012F000040040B10AF0080028B108202168C86045
:10130000204600F01DFA06F0020038B12068C068DF
:1013100000F0030010B1204600F014FA06F040007F
:1013200038B10BF0100020B145F480651020216821
:10133000086106F0200040B10BF0080028B1082039
:1013400021680861204600F0C7FA06F0100038B1A5
:101350002068006900F0030010B1204600F0BDFADB
:1013600006F4003040B109F0100028B110202168C7
:101370004860204600F0B2FA06F4803040B109F02F
:10138000080028B1082021684860204600F0DCFAF7
:1013900006F4004088B309F0040078B306F48070C6
:1013A00020B108F0010008B145F0010506F4007015
:1013B00020B108F0020008B145F0020506F4806093
:1013C00020B108F0040008B145F0040506F40060FF
:1013D000A0B108F0700088B108F07000402817D064
:1013E00006DC10280BD020280CD0302819D10CE0B6
:1013F000502810D0602814D110E01DE019E045F00D
:1014000008050FE045F010050CE045F0200509E067
:1014100045F0400506E045F0800503E045F48075A1
:1014200000E000BF00BF2068806920F070002168E4
:1014300088610420216848602DB1606A2843606299
:101440002046FFF71DFEBDE8F09F70B504460CB9BD
:10145000012070BD94F8200010B9204600F0B0F8CB
:101460002068006840F001002168086000F0E4FD99
:1014700005460DE000F0E0FD401B0A2808D9606A2F
:1014800040F400306062052084F820000120E0E78D
:101490002068406800F001000028EBD02068006858
:1014A00020F002002168086000F0C6FD05460DE04E
:1014B00000F0C2FD401B0A2808D9606A40F40030E1
:1014C0006062052084F820000120C2E7206840689F
:1014D00000F002000028EBD1207E012806D1206810
:1014E000006840F080002168086005E0206800681E
:1014F00020F0800021680860607E012806D1206805
:10150000006840F040002168086005E0206800683D
:1015100020F0400021680860A07E012806D12068E4
:10152000006840F020002168086005E0206800683D
:1015300020F0200021680860E07E012806D12068A4
:10154000006820F010002168086005E0206800684D
:1015500040F0100021680860207F012806D1206833
:10156000006840F008002168086005E02068006815
:1015700020F0080021680860607F012806D12068FB
:10158000006840F004002168086005E020680068F9
:1015900020F0040021680860D4E9020108432169B1
:1015A0000843616908436168491E08432168C861AE
:1015B00000206062012084F82000002049E700003C
:1015C00010B586B00446142101A8FEF7C3FF5649A2
:1015D0002068884249D155480068401C534908603A
:1015E0000846006801280FD100BF00200090504835
:1015F000006840F000704E4908600846006800F03E
:101600000070009000BF00BF00BF0020009048485D
:101610001038006840F00800454910390860084655
:10162000006800F00800009000BF00BF0320019098
:1016300002200290002003900320049009200590CE
:1016400001A93C4800F0F8FB00220521132001F01D
:101650002FF9132001F01CF900220521142001F0BC
:1016600027F9142001F014F95CE03349206888421E
:1016700058D100BF002000902D48006840F08060E5
:101680002B4908600846006800F08060009000BFA9
:1016900000BF26480068401C2449086008460068CE
:1016A00001280FD100BF002000902148006840F0C1
:1016B00000701F4908600846006800F00070009044
:1016C00000BF00BF00BF002000901948103800681C
:1016D00040F002001649103908600846006800F022
:1016E0000200009000BF00BF602001900220029025
:1016F00000200390032004900920059001A90F48C1
:1017000000F09AFB002205213F2001F0D1F83F2094
:1017100001F0BEF800220521402001F0C9F8402068
:1017200001F0B6F806B010BD00640040F4000020DF
:1017300040380240000C02400068004000040240B3
:101740007047000010B58AB004465C48844236D128
:101750005B4B5C4A0021FFF794FC5A48006840F25A
:10176000053188422AD1564840785549097840EADF
:10177000012000EE100AB8EEC00A534880ED010ABD
:101780004F48C0784E49897840EA012000EE100A9F
:10179000B8EEC00A4C4880ED020A494800794A492F
:1017A00008704748C0794649897940EA012000EE2F
:1017B000100AB8EEC00A444880ED030A7BE04348B3
:1017C000844278D142492068884205D101AB03AAFE
:1017D00000213E48FFF755FC0398B0F5007F32D951
:1017E0000398B0F5027F2ED20399491EC8B29DF826
:1017F00005109DF8042041EA0221C0EBC002354BE0
:1018000003EB420291809DF807109DF8062041EA03
:10181000022109B2C0EBC00203EB420211819DF824
:1018200009109DF8082041EA022109B2C0EBC0026C
:1018300003EB420251819DF80A10C0EBC00203EB9A
:101840004202117300BF0398B0F5017F32D90398AB
:10185000B0F5037F2ED20399491FC8B29DF8051039
:101860009DF8042041EA0221C0EBC002194B03EBB2
:10187000420291809DF807109DF8062041EA02215E
:1018800009B2C0EBC00203EB420211819DF80910BE
:101890009DF8082041EA022109B2C0EBC00203EB27
:1018A000420251819DF80A10C0EBC00203EB4202D4
:1018B000117300BF00BF0AB010BD00003409002042
:1018C00080010020CC4C0020104D00205C0900203D
:1018D000006800401403002070477047704770B5DF
:1018E000044694F82000012822D1022084F8200028
:1018F0002068006820F001002168086000F09CFB6F
:1019000005460DE000F098FB401B0A2808D9606AE4
:1019100040F400306062052084F82000012070BD92
:101920002068406800F001000028EBD16062F6E713
:10193000606A40F4002060620120F0E77047704761
:101940007047704770477047704770B50446A56D83
:1019500000F072FB064694F83500022808D080207B
:10196000606500BF002084F8340000BF012070BD16
:101970002068006820F0160021680860206840692F
:1019800020F0800021684861206C08B9A06C28B163
:101990002068006820F0080021680860206800685E
:1019A00020F001002168086010E000F045FB801B7A
:1019B00005280BD920206065032084F8350000BF7E
:1019C000002084F8340000BF0320D0E720680068BE
:1019D00000F001000028E8D194F85C103F20884016
:1019E000A860012084F8350000BF002084F834008E
:1019F00000BF00BFBBE7014691F83500022803D0C5
:101A00008020486501207047052081F8350008686E
:101A1000006820F001000A6810600020F3E7000071
:101A2000F8B50446002000908C4800684FF4165129
:101A3000B0FBF1F7A56D2E6894F85C100820884083
:101A4000304098B12068006800F0040070B1206850
:101A5000006820F004002168086094F85C100820F9
:101A60008840A860606D40F00100606594F85C10EB
:101A700001208840304068B12068406900F0800053
:101A800040B194F85C1001208840A860606D40F07F
:101A90000200606594F85C1004208840304068B112
:101AA0002068006800F0020040B194F85C10042047
:101AB0008840A860606D40F00400606594F85C1098
:101AC00010208840304078B32068006800F008009B
:101AD00050B394F85C1010208840A860206800681B
:101AE00000F4802080B12068006800F4002028B94C
:101AF000206CC8B12046216C884715E0A06C98B1D5
:101B00002046A16C88470FE02068006800F48070D0
:101B100028B92068006820F0080021680860206C5F
:101B200010B12046216C884794F85C102020884032
:101B30003040002865D02068006800F010000028C0
:101B40005FD094F85C1020208840A86094F835009D
:101B5000052828D12068006820F016002168086058
:101B60002068406920F0800021684861206C08B935
:101B7000A06C28B12068006820F008002168086087
:101B800094F85C103F208840A860012084F835005C
:101B900000BF002084F8340000BF206D10B1204643
:101BA000216D8847F8BD2068006800F4802080B16E
:101BB0002068006800F4002028B9606C10B120464D
:101BC000616C88471DE0E06BD8B12046E16B884727
:101BD00017E02068006800F4807068B92068006829
:101BE00020F0100021680860012084F8350000BF53
:101BF000002084F8340000BFE06B10B12046E16B98
:101C00008847606D38B3606D00F00100F0B10520C9
:101C100084F835002068006820F001002168086021
:101C200000BF0098401C0090B84200D905E0206831
:101C3000006800F001000028F3D100BF012084F803
:101C4000350000BF002084F8340000BFE06C10B104
:101C50002046E16C884700BFA4E700000401002093
:101C60002DE9F0410446002500F0E6F9074614B9D5
:101C70000120BDE8F081606A00B100BF022084F855
:101C8000350000BF002084F8340000BF20680068E1
:101C900020F00100216808600AE000F0CDF9C01BC7
:101CA000052805D920206065032084F83500E0E789
:101CB0002068006800F001000028EED12068056867
:101CC00021480540D4E901010843E168084321693E
:101CD000084361690843A1690843E1690843216A2F
:101CE00008430543606A042803D1D4E90B01084383
:101CF0000543206805602068456925F00705606A8E
:101D00000543606A04280DD1A06A0543E06A48B122
:101D10002046FEF767FF28B140206065012084F867
:101D20003500A6E7206845612046FEF741FF0646DC
:101D300094F85C103F208840B0600020606501206E
:101D400084F83500002094E73F8010F02DE9F0473B
:101D500004460D4616461F464FF00008D4F858902A
:101D600000BF94F83400012802D10220BDE8F087BA
:101D7000012084F8340000BF94F83500012825D1F3
:101D8000022084F83500002060653B463246294633
:101D90002046FEF77CFF94F85C103F208840C9F88D
:101DA00008002068006840F0160021680860206C78
:101DB00028B12068006840F00800216808602068A9
:101DC000006840F001002168086006E000BF0020C4
:101DD00084F8340000BF4FF002084046C6E7000018
:101DE00070B5044600F028F906462546681C10B177
:101DF00004480078054400BF00F01EF9801BA8428B
:101E0000FAD370BD0001002010B50446082C02D1A1
:101E1000014806F09BF810BDB006002010B504463E
:101E200004480068204020B1024804602046FFF7C3
:101E3000EBFF10BD143C0140F8B502460B460025EF
:101E4000002400200021D6E0012606FA01F51E68D4
:101E500006EA0504AC4274D11E7906F00306012E91
:101E600004D01E7906F00306022E13D190684F00AD
:101E70000326BE40B0434F00DE68BE403043906052
:101E8000506801268E40B0431E79C6F300168E407E
:101E9000304350601E7906F00306032E09D0D06847
:101EA0004F000326BE40B0434F009E68BE40304303
:101EB000D0601E7906F00306022E13D1CF0802F17E
:101EC000200656F827004E07F70E0F26BE40B043F7
:101ED0004F07FF0E1E69BE403043CF0802F12006B7
:101EE00046F8270010684F000326BE40B0431E7915
:101EF00006F003064F00BE40304310605E6806F4F3
:101F00004036002E76D000BF002600963C4E366844
:101F100046F480463A4F3E603E46366806F48046B8
:101F2000009600BF00BF374E8F0856F827008E0777
:101F3000370F0F26BE40B043334EB24202D10026C7
:101F400024E057E0314EB24201D101261EE0304E6E
:101F5000B24201D1022619E02E4EB24201D103262F
:101F600014E02D4EB24201D104260FE02B4EB242B6
:101F700001D105260AE02A4EB24201D1062605E02B
:101F8000284EB24201D1072600E008268F073F0FF6
:101F9000BE4030431B4E8F0846F82700224E306863
:101FA000A0435E6806F4801606B120431E4E3060E2
:101FB000361D3068A0435E6806F4001606B1204363
:101FC000194E361D3060184E361F3068A0435E68CB
:101FD00006F4003606B12043134E361F3060361F1C
:101FE0003068A0435E6806F4803606B120430E4E8A
:101FF000083E3060491C1029FFF426AFF8BD0000F0
:102000004438024008380140000002400004024009
:1020100000080240000C0240001002400014024080
:1020200000180240001C0240083C01400AB18161D6
:1020300001E00B04836170470148006870470000AD
:10204000F800002070B504460CB9012070BD94F86A
:102050003D0028B9002084F83C00204600F006FB33
:10206000242084F83D002068006820F001002168E9
:1020700008602068006840F400402168086020681B
:10208000006820F400402168086000F04DFD05461E
:102090005C496068884206D85B48854201D20120CD
:1020A00007E0002005E05948854201D2012000E008
:1020B0000020012800D1C9E75548B5FBF0F620689B
:1020C000406820F03F003043216848604D49606817
:1020D000884201D8701C07E04FF4967070434FF4AB
:1020E0007A71B0FBF1F0401C2168096A21F03F01D0
:1020F00008432168086243496068884214D8681E12
:1021000061684900B0FBF1F0401CC0F30B000428EB
:1021100001D204203DE0681E61684900B0FBF1F087
:10212000401CC0F30B0034E0A06838B9681E616839
:1021300001EB4101B0FBF1F0401C0AE0681E616850
:1021400001EBC10202EB0111B0FBF1F0401C40F4C5
:102150008040C0F30B0008B901201AE0A06848B91C
:10216000681E616801EB4101B0FBF1F0401CC0F357
:102170000B000CE0681E616801EBC10202EB01116B
:10218000B0FBF1F0401CC0F30B0040F4804040F481
:1021900000402168C9694CF6FF72914308432168E9
:1021A000C861D4E9070108432168096821F0C0012A
:1021B000084321680860D4E903100843216889684E
:1021C00048F2FF329143084321688860D4E9050151
:1021D00008432168C96821F0FF0108432168C860ED
:1021E0002068006840F00100216808600020206439
:1021F000202084F83D000020206384F83E0000BFCA
:1022000024E70000A086010080841E0000093D0034
:1022100040420F002DE9FC5F04460F469046994668
:10222000DDE90CAB0E9EFFF707FF054694F83D0075
:10223000202870D119230122B0492046009502F0D0
:1022400035FE10B10220BDE8FC9F00BF94F83C00B1
:10225000012801D10220F6E7012084F83C0000BFEC
:102260002068006800F0010028B92068006840F08C
:102270000100216808602068006820F4006021687F
:102280000860222084F83D00402084F83E000020B1
:102290002064C4F824A0A4F82AB0608D2085984852
:1022A000E0624B46424639462046CDE9006502F0E1
:1022B000AFFC08B10120C6E7208D88B900BF00201F
:1022C000019020684069019020688069019000BFFA
:1022D00000BF2068006840F400702168086040E09A
:1022E000208D012818D12068006820F480602168C2
:1022F000086000BF002001902068406901902068BC
:102300008069019000BF00BF2068006840F4007041
:102310002168086025E0EFE0208D022816D12068B2
:10232000006820F48060216808602068006840F43C
:1023300000602168086000BF0020019020684069AB
:10234000019020688069019000BF0AE000BF002072
:10235000019020684069019020688069019000BF69
:1023600000BFBAE0208D03287ED8208D012815D12A
:102370002A463146204602F03EFE08B1012062E7BF
:1023800020680069616A0870606A401C6062208D84
:10239000401E2085608D401E60859EE0208D0228B5
:1023A0002AD13346002257492046009502F07EFD8F
:1023B00008B1012047E72068006840F400702168F8
:1023C000086020680069616A0870606A401C606289
:1023D000208D401E2085608D401E6085206800692C
:1023E000616A0870606A401C6062208D401E208512
:1023F000608D401E608570E03346002241492046D2
:10240000009502F053FD08B101201CE72068006828
:1024100020F480602168086020680069616A0870A3
:10242000606A401C6062208D401E2085608D401EC9
:1024300060853346002233492046009502F036FD80
:1024400008B10120FFE62068006840F400702168B0
:10245000086020680069616A0870606A401C6062F8
:10246000208D401E208500E010E0608D401E6085BC
:1024700020680069616A0870606A401C6062208D93
:10248000401E2085608D401E608526E02A4631462C
:10249000204602F0B0FD08B10120D4E620680069B2
:1024A000616A0870606A401C6062208D401E208551
:1024B000608D401E608520684069C0F3800060B177
:1024C00020680069616A0870606A401C6062208D43
:1024D000401E2085608D401E6085208D00287FF481
:1024E00041AF202084F83D00002084F83E0000BF6A
:1024F00084F83C0000BFA6E60220A4E6020010001B
:102500000000FFFF040001002DE9FC5F04460F46B8
:1025100090469946DDE90CAB0E9EFFF78DFD054612
:1025200094F83D0020287DD1192301224D492046F1
:10253000009502F0BBFC10B10220BDE8FC9F00BF7B
:1025400094F83C00012801D10220F6E7012084F82C
:102550003C0000BF2068006800F0010028B9206836
:10256000006840F00100216808602068006820F4DD
:10257000006021680860212084F83D00402084F834
:102580003E0000202064C4F824A0A4F82AB0608D86
:1025900020853548E0624B46424639462046CDE923
:1025A000006502F0E5FB08B10120C6E731E02A46EC
:1025B0003146204602F05FFD50B1206C042805D161
:1025C0002068006840F40070216808600120B4E7CA
:1025D000606A007821680861606A401C6062208D32
:1025E000401E2085608D401E608520684069C0F3D4
:1025F000800070B1208D60B1606A00782168086148
:10260000606A401C6062208D401E2085608D401EE7
:102610006085208D0028CAD12A463146204602F026
:1026200017FC00E01CE050B1206C042805D12068A4
:10263000006840F400702168086001207DE7206890
:10264000006840F4007021680860202084F83D0094
:10265000002084F83E0000BF84F83C0000BF6CE717
:1026600002206AE7020010000000FFFF10B586B0EC
:102670000446142101A8FDF76DFF2A49206888420D
:102680004DD100BF002000902748006840F00400B2
:10269000254908600846006800F00400009000BF6B
:1026A00000BF00BF002000900846006840F0010015
:1026B00008600846006800F00100009000BF00BFFD
:1026C00048150190122002900020039003200490EE
:1026D0000420059001A91548FFF7AEFB4FF4807068
:1026E0000190122002900020039003200490042007
:1026F000059001A90E48FFF79FFB00BF0020009046
:1027000009481030006840F40000074910310860A3
:102710000846006800F40000009000BF00BF06B04B
:1027200010BD0000005C004030380240000802404C
:102730000000024003480068034909780844014941
:1027400008607047F80000200001002010B50D4817
:10275000006840F400700B4908600846006840F4C7
:10276000806008600846006840F4807008600320BC
:1027700000F0DCF80F2000F007F800F05FF8002010
:1027800010BD0000003C02402DE9F04188B0044635
:102790000027B84600BF002001902348006840F0A1
:1027A0000200214908600846006800F0020001901C
:1027B00000BF00BF02A903A800F08EF9069F1FB951
:1027C00000F0B2F9054602E000F0AEF94500174806
:1027D000B5FBF0F0A0F1010815481649086040F279
:1027E000E7311448C160C0F80480002101618160B4
:1027F000816101F01DFA064696B90E4801F0ECFA27
:1028000006466EB91D2000F043F8102C07D20022B6
:1028100021461D2000F04CF80748046000E0012626
:10282000304608B0BDE8F0814038024040420F0019
:1028300000040040640F0020FC00002008B500BF29
:10284000002000901148006840F480400F49086063
:102850000846006800F48040009000BF00BF00BF41
:1028600000200090081F006840F08050091F086099
:102870000846006800F08050009000BF00BF0022B2
:102880000F21901E00F014F808BD000044380240EB
:1028900001460846002809DB00F01F0301229A4088
:1028A00043099B0003F1E023C3F8002100BF7047F8
:1028B0002DE9F05F80460D461646002704F026FC01
:1028C000074639462A46334601F00700C0F1070A99
:1028D000BAF1040F02D94FF0040A01E0C0F1070A6F
:1028E000D14600F1040ABAF1070F02D24FF0000AF4
:1028F00001E0A0F1030AD4464FF0010A0AFA09FAEE
:10290000AAF1010A0AEA020A0AFA0CFA4FF0010BCC
:102910000BFA0CFBABF1010B0BEA030B4AEA0B04BD
:102920002146404604F0FAFBBDE8F09F00BF00F0EE
:102930000702064B19684FF6FF031940044B0B437F
:1029400043EA0221014B196000BF70470CED00E023
:102950000000FA0570B504460D460CB9012070BDA3
:102960005848006800F00700A84209D255490D7088
:102970000846006800F00700A84201D00120EEE7F9
:10298000207800F0020002281DD1207800F0040019
:10299000042805D14C48006840F4E0504A490860DA
:1029A000207800F00800082805D14748006840F466
:1029B0006040454908604448006820F0F000A16884
:1029C000084341490860207800F00100A8B360681E
:1029D000012807D13C4808380068C0F34040B8B926
:1029E0000120BCE76068022802D06068032807D194
:1029F000354808380068C0F3406048B90120AEE7A8
:102A0000314808380068C0F3400008B90120A6E743
:102A10002D48006820F00300616808432A490860D7
:102A2000FFF70AFB064609E0FFF706FB801B41F2B1
:102A30008831884202D9032091E707E022480068E4
:102A400000F00C006168B0EB810FEDD11D4800680B
:102A500000F00700A84209D91A490D70084600681D
:102A600000F00700A84201D0012078E7207800F0AC
:102A70000400042807D11448006820F4E050E168FD
:102A8000084311490860207800F00800082808D1A0
:102A90000D48006820F46040216940EAC1000A49FD
:102AA000086000F061F808490968C1F30311074A9A
:102AB000515CC8400649086006480068FFF764FE9C
:102AC00000204CE7003C02400838024086A4000881
:102AD00004010020FC0000200F2202600D4A126851
:102AE00002F0030242600B4A126802F0F0028260B8
:102AF000084A126802F4E052C260064A126802F400
:102B00006042D2080261044A126802F007020A60B9
:102B10007047000008380240003C0240014800684D
:102B2000704700000401002000B5FFF7F7FF0449DB
:102B30000968C1F38221034A515CC84000BD00000E
:102B40000838024096A4000800B5FFF7E7FF0449E3
:102B50000968C1F34231034A515CC84000BD00001E
:102B60000838024096A400082DE9F047002400250B
:102B70000026A1462548006800F00C0020B104287A
:102B800005D008283AD105E0DFF8849039E0DFF875
:102B9000849036E01D48001F006800F03F041B4889
:102BA000001F006800F4800078B11A481749091F17
:102BB0000968C1F38811A0FB017001462246002379
:102BC0003846FDF7D1FB05460EE011480F49091FB5
:102BD0000968C1F38811A0FB017001462246002359
:102BE0003846FDF7C1FB05460848001F0068C0F3E2
:102BF0000140401C4600B5FBF6F902E0DFF81090FA
:102C000000BF00BF4846BDE8F0870000083802401A
:102C10000024F400001BB700F8B504460CB90120ED
:102C2000F8BD207800F00100002874D0F948006851
:102C300000F00C0004280DD0F648006800F00C00ED
:102C4000082813D1F348001F006800F48000B0F595
:102C5000800F0BD1EF4808380068C0F340400028CF
:102C600059D06068002856D10120D9E700BF6068BC
:102C7000B0F5803F08D1E7480838006840F480305C
:102C8000E449083908601EE06068B0F5A02F0DD156
:102C9000E0480838006840F48020DE4908390860C0
:102CA0000846006840F4803008600CE0D9480838D5
:102CB000006820F48030D749083908600846006869
:102CC00020F48020086000BF606890B1FFF7B4F97D
:102CD000054606E0FFF7B0F9401B642801D9032040
:102CE0009EE7CC4808380068C0F340400028F1D087
:102CF00011E0FFF7A1F9054606E0FFF79DF9401B3B
:102D0000642801D903208BE7C24808380068C0F363
:102D100040400028F1D1207800F0020002285FD165
:102D2000BC48006800F00C0058B1BA48006800F0D8
:102D30000C0008281CD1B748001F006800F4800070
:102D4000B0B9B44808380068C0F3400020B1E0686A
:102D5000012801D0012063E7AE480838006820F060
:102D6000F800216940EAC100AA490839086037E043
:102D7000E06800B30120A8490860FFF75DF9054647
:102D800006E0FFF759F9401B022801D9032047E765
:102D9000A04808380068C0F340000028F1D09D48E2
:102DA0000838006820F0F800216940EAC10099491C
:102DB0000839086014E0002097490860FFF73CF9E3
:102DC000054606E0FFF738F9401B022801D9032029
:102DD00026E7904808380068C0F340000028F1D189
:102DE000207800F0080008282CD16069A8B10120E3
:102DF0008A490860FFF720F9054606E0FFF71CF94D
:102E0000401B022801D903200AE782486C30006881
:102E1000C0F340000028F1D014E000207F49086092
:102E2000FFF70AF9054606E0FFF706F9401B0228FE
:102E300001D90320F4E677486C300068C0F3400005
:102E40000028F1D1207800F00400042870D1002778
:102E500070483830006800F0805090B900BF002002
:102E600000906C483830006840F080506949383133
:102E700008600846006800F08050009000BF00BF66
:102E800001276748006800F48070B0B964480068A2
:102E900040F4807062490860FFF7CEF8054606E00E
:102EA000FFF7CAF8401B022801D90320B8E65C48A6
:102EB000006800F480700028F2D000BFA0680128EC
:102EC00008D154486830006840F001005149683129
:102ED00008601DE0A06805280DD14E4868300068E4
:102EE00040F004004B49683108600846006840F033
:102EF000010008600CE047486830006820F00100DD
:102F00004449683108600846006820F00400086001
:102F100000BFA068A8B1FFF78FF8054609E0FFF7EA
:102F20008BF8401B41F28831884202D9032077E6B2
:102F300026E0384868300068C0F340000028EED032
:102F400013E0FFF779F8054608E0FFF775F8401B36
:102F500041F28831884201D9032061E62D4868306A
:102F60000068C0F340000028EFD1012F07D12948A5
:102F70003830006820F0805026493831086000BFA2
:102F8000A069002845D02348006800F00C000828FC
:102F90005DD0A069022845D100201F490866FFF7CF
:102FA0004BF8054606E0FFF747F8401B022801D919
:102FB000032035E6174808380068C0F34060002851
:102FC000F1D1D4E907010843616A40EA8111012285
:102FD000A06AC2EB500041EA00412C20005D41EAAA
:102FE00000600C49091F086001200B490866FFF7C3
:102FF00023F8054606E0FFF71FF8401B022801D919
:1030000003200DE6034808380068C0F3406000283C
:10301000F1D049E00838024000004742800E4742A4
:1030200000700040002021490866FFF705F80546BA
:1030300006E0FFF701F8401B022801D90320EFE565
:103040001B480068C0F340600028F2D12CE0A06962
:10305000012800D1E4E51648001D0668A069012892
:1030600020D006F48001E06981421BD106F03F01C7
:10307000206A814216D147F6C0703040616AB0EBD9
:10308000811F0FD106F440310122A06AC2EB50002B
:10309000B1EB004F06D106F070612C20005DB1EB62
:1030A000006F01D00120BBE50020B9E500004742D8
:1030B000003802407047014691F851007047000007
:1030C000F8B504462068466820688568C5F3801016
:1030D00048B905F0010030B1C6F3801018B12046A0
:1030E000216C8847F8BDC5F3400030B1C6F3C0106D
:1030F00018B12046616C8847F4E7C5F3401030B939
:10310000C5F3801018B9C5F3002000287CD0C6F3A1
:10311000401000287DD0C5F38010F0B194F8510024
:1031200003280ED0606D40F00400606500BF0020F1
:1031300000902068C068009020688068009000BF00
:103140000BE000BF002000902068C068009020685D
:103150008068009000BF00BFC4E7C5F3401088B18D
:10316000606D40F00100606500BF002000902068A5
:10317000806800902068006820F0400021680860A6
:1031800000BF00BFC5F3002058B1606D40F00800DB
:10319000606500BF0020009020688068009000BF3C
:1031A00000BF606D78B32068406820F0E0002168BF
:1031B0004860012084F8510006F00200022802D085
:1031C00006F0010008B32068406820F00300216881
:1031D0004860E06C50B11048E16C0865E06CFEF7A7
:1031E0000AFC18B1606D40F040006065A06C50B101
:1031F0000948A16C0865A06CFEF7FDFB18B1606D75
:1032000040F04000606503E003E02046FFF752FF16
:1032100068E700BF66E700008960000810B5044653
:103220000CB9012010BD606A38B96068B0F5827FC2
:1032300000D105E00021E16102E00021216161612E
:103240000021A16294F8510028B9002084F85000B0
:10325000204600F047F8022084F8510020680068FA
:1032600020F0400021680860A08800F48270218965
:1032700001F404410843A18901F400610843217C61
:1032800001F002010843217D01F001010843218B77
:1032900001F400710843217F01F038010843202127
:1032A000095D01F080010843218D01F400510843BC
:1032B000216808600421A06901EA104094F82410F4
:1032C00001F010010843216848602068C06920F4BB
:1032D00000602168C86100206065012084F8510009
:1032E00000209FE710B586B00446142101A8FDF721
:1032F00031F94F49206888427ED100BF00200090FC
:103300004C48006840F480504A490860084600680C
:1033100000F48050009000BF00BF00BF002000906C
:1033200044481438006840F00200424914390860EB
:103330000846006800F00200009000BF00BF00BF18
:10334000002000900846006840F001000860084630
:10335000006800F00100009000BF00BF182001903D
:103360000220029000200390032004900520059085
:1033700001A93148FEF760FD8020019002200290F3
:1033800000200390032004900520059001A92B48FC
:10339000FEF752FD2A482B4908604FF0C060486094
:1033A000002128488160C1604FF4806101610021E3
:1033B00041618161C1614FF440310162002141628C
:1033C000FEF74EFC08B1FDF788FC00BF1D48E06425
:1033D000846300BF1A4848301B4908604FF0C06042
:1033E00048604021184881600021C1604FF480612D
:1033F00001610021416100E018E08161C1614FF489
:103400000031016200214162FEF72AFC08B1FDF79C
:1034100064FC00BF0C48A064846300BF0022052147
:103420002320FFF745FA2320FFF732FA06B010BD3C
:1034300000300140443802400004024000000240D5
:1034400010640240300A0020900A00202DE9F84361
:103450000446884616461D464FF000096068B0F5E0
:10346000827F0DD1A06858B9042084F851003346FA
:10347000424641462046009500F030F9BDE8F88309
:1034800000BF94F85000012801D10220F6E7012086
:1034900084F8500000BFFEF7CFFD074694F85100B6
:1034A000012802D04FF002097EE0B8F1000F00D0F1
:1034B00016B94FF0010977E0042084F8510000208C
:1034C0006065C4F83880A687E6872063A086E0861A
:1034D00020646064A068B0F5004F0BD120680068DC
:1034E00020F04000216808602068006820F48040D7
:1034F000216808602068006800F04000402805D07E
:103500002068006840F0400021680860E068F8B971
:103510001AE02068806800F0010050B12068007B4C
:10352000A16B0870A06B401CA063E08F401EE08779
:103530000AE0FEF781FDC01BA84201D3681C00B958
:1035400015B94FF003092FE0E08F0028E1D11EE00C
:103550001AE02068806800F0010050B12068C0685F
:10356000A16B0880A06B801CA063E08F401EE087E9
:103570000AE0FEF761FDC01BA84201D3681C00B938
:1035800015B94FF003090FE0E08F0028E1D13A466A
:103590002946204602F05DFE08B120206065606D7E
:1035A00008B14FF0010900BF012084F8510000BFAD
:1035B000002084F8500000BF48465FE72DE9F04145
:1035C00004460E4615460027A06870B96068B0F53D
:1035D000827F0AD1042084F851002B4632463146BE
:1035E000204600F091F9BDE8F08100BF94F850004A
:1035F000012801D10220F6E7012084F8500000BF25
:1036000094F85100012801D0022757E006B10DB906
:10361000012753E0042084F8510000206065A66370
:10362000A587E58720646064A086E086A068B0F581
:10363000004F0BD12068006820F04000216808602E
:103640002068006820F48040216808601F48E16C11
:1036500008641F48E16CC8631E48E16CC864002020
:10366000E16C0865E38FD4F800C00CF10C01A26B8B
:10367000E06CFEF76BFB40B1606D40F010006065E0
:103680000127012084F8510018E02068006800F04C
:103690004000402805D02068006840F040002168C4
:1036A00008602068406840F0200021684860206879
:1036B000406840F001002168486000BF00BF002062
:1036C00084F8500000BF38468DE70000C560000850
:1036D000EF6000089D600008704770472DE9FF5FAC
:1036E0000446884691461D460E9E01200290002009
:1036F000019000BF94F85000012803D1022004B0CB
:10370000BDE8F09F012084F8500000BFFEF794FC54
:10371000074694F851B060680390AA46BBF1010FC8
:103720000BD00398B0F5827F04D1A06810B9BBF12B
:10373000040F02D002200190DBE0B8F1000F03D0AB
:10374000B9F1000F00D015B901200190D1E094F833
:103750005100042802D0052084F851000020606543
:10376000C4F83890E587A587C4F83080E586A5863B
:10377000206460642068006800F04000402805D0A4
:103780002068006840F0400021680860E068B0F5FB
:10379000006F4AD1606810B1BAF1010F09D1206BF6
:1037A00000882168C860206B801C2063E08E401E6A
:1037B000E08633E02068806800F00200022810D123
:1037C000E08E70B1029801280BD1206B008821682F
:1037D000C860206B801C2063E08E401EE0860020C5
:1037E00002902068806800F0010068B1E08F58B155
:1037F0002068C068A16B0880A06B801CA063E08F6C
:10380000401EE08701200290FEF716FCC01BB0426C
:1038100004D3701C10B1032001906AE0E08E0028F0
:10382000C8D1E08F0028C5D14AE0606810B1BAF174
:10383000010F09D1206B007821680873206B401CB0
:103840002063E08E401EE08634E02068806800F04F
:103850000200022810D1E08E70B1029801280BD12D
:10386000206B007821680873206B401C2063E08E79
:10387000401EE086002002902068806800F0010071
:1038800068B1E08F58B12068C068A16B0870A06B68
:10389000401CA063E08F401EE08701200290FEF7ED
:1038A000CBFBC01BB04201D3701C00B916B903207A
:1038B00001901EE0E08E0028C7D1E08F0028C4D11F
:1038C0003A463146204602F00FFD20B1012001901A
:1038D000202060650DE0A06850B900BF0020009076
:1038E0002068C068009020688068009000BF00BF1A
:1038F00000BF012084F8510000BF002084F8500070
:1039000000BF0198FBE600002DE9F04704460E4693
:1039100017461D464FF0000A00BF94F850000128DA
:1039200002D10220BDE8F087012084F8500000BFDA
:1039300094F85180D4F80490B8F1010F0AD0B9F589
:10394000827F04D1A06810B9B8F1040F02D04FF003
:10395000020A7DE00EB107B115B94FF0010A77E018
:1039600094F85100042802D0052084F8510000206A
:1039700060652663A586E586A763A587E58720643D
:10398000606494F85100042806D13548E16C08645D
:103990003448E16CC86305E03348E16C086433489F
:1039A000E16CC8633248E16CC8640020E16C0865D2
:1039B000E38FD4F800C00CF10C01A26BE06CFEF7B1
:1039C000C5F948B1606D40F0100060654FF0010A24
:1039D000012084F851003BE02068406840F001007D
:1039E000216848600020A16C0864A16CC863A16CC8
:1039F000C864A16C0865E38ED4F800C00CF10C0219
:103A0000216BA06CFEF7A2F948B1606D40F0100088
:103A100060654FF0010A012084F8510018E0206829
:103A2000006800F04000402805D02068006840F0A1
:103A30004000216808602068406840F0200021684C
:103A400048602068406840F002002168486000BF7C
:103A500000BF002084F8500000BF504662E700001D
:103A6000C5600008EF600008E1600008EB61000835
:103A70009D6000082DE9F04104460E4615460027DA
:103A800000BF94F85000012802D10220BDE8F08167
:103A9000012084F8500000BF94F85100012801D0A3
:103AA000022758E006B10DB9012754E0032084F83D
:103AB0005100002060652663A586E586A0636064EA
:103AC0002064A087E087A068B0F5004F0BD1206884
:103AD000006820F04000216808602068006840F419
:103AE0008040216808601F48A16C08641E48A16CD2
:103AF000C8631E48A16CC8640020A16C0865E38EF1
:103B0000D4F800C00CF10C02216BA06CFEF71EF97A
:103B100040B1606D40F0100060650127012084F81D
:103B2000510018E02068006800F04000402805D0EF
:103B30002068006840F04000216808602068406804
:103B400040F02000216848602068406840F0020092
:103B50002168486000BF00BF002084F8500000BF0B
:103B6000384693E7D36000086B6100089D60000849
:103B700070477047704770477047704730B50246CE
:103B80000B4600BF92F83C00012801D1022030BD55
:103B9000012082F83C0000BF022082F83D0010683E
:103BA00044681068816824F0700418680443106841
:103BB0004460184D1068A8421BD01068B0F1804FC7
:103BC00017D0154D1068A84213D0144D1068A842A4
:103BD0000FD0134D1068A8420BD0124D1068A842A8
:103BE00007D0114D1068A84203D0104D1068A842AC
:103BF00005D121F0800158680143106881600120DF
:103C000082F83D0000BF002082F83C0000BF00BFEA
:103C1000BDE7000000000140000400400008004033
:103C2000000C00400004014000400140001800402A
:103C300010B504460CB9012010BD94F83D0028B918
:103C4000002084F83C00204600F026F8022084F88A
:103C50003D00211D206802F0C3FC012084F84600CD
:103C600000BF84F83E0001213F200155402001554E
:103C70004120015500BF00BF012084F842004320CD
:103C80000155442001554520015500BF012084F80D
:103C90003D000020D0E7000038B5044649492068BF
:103CA000884218D100BF002000904748006840F0CB
:103CB0000100454908600846006800F001000090D6
:103CC00000BF00BF002205211820FEF7F1FD1820DB
:103CD000FEF7DEFD74E02068B0F1804F1AD100BF1E
:103CE000002000903848001F006840F0010036496D
:103CF000091F08600846006800F00100009000BF3E
:103D000000BF002205211C20FEF7D2FD1C20FEF77B
:103D1000BFFD55E02D492068884220D100BF00201A
:103D200000902948006840F00200274908600846D2
:103D3000006800F00200009000BF00BF00220521D3
:103D40002B20FEF7B5FD2B20FEF7A2FD002205215A
:103D50002C20FEF7ADFD2C20FEF79AFD30E01C492B
:103D60002068884218D100BF0020009016480068E3
:103D700040F48030144908600846006800F4803040
:103D8000009000BF00BF002205211820FEF790FD23
:103D90001820FEF77DFD13E00E49206888420FD100
:103DA00000BF002000900848006840F40030064939
:103DB00008600846006800F40030009000BF00BFB3
:103DC00038BD0000000001404438024000040140BA
:103DD0000040014000440140014691F83D000128A7
:103DE00001D001207047022081F83D000868C068BA
:103DF00040F001000B68D8601A4B086898421BD04D
:103E00000868B0F1804F17D0174B0868984213D05C
:103E1000164B086898420FD0154B086898420BD093
:103E2000144B0868984207D0134B0868984203D097
:103E3000124B086898420CD10868806800F00702AD
:103E4000062A0CD00868006840F001000B68186072
:103E500005E00868006840F001000B681860002069
:103E6000C0E70000000001400004004000080040DE
:103E7000000C0040000401400040014000180040D8
:103E80002DE9F04104460D46002700BF94F83C00A0
:103E9000012802D10220BDE8F081012084F83C0015
:103EA00000BF022084F83D002068866826F077066F
:103EB00026F47F46206886602868502833D00CDCC2
:103EC000202850D004DC00284BD0102851D149E0E4
:103ED000302849D040284CD139E060282DD07028B6
:103EE00007D0B0F5805F03D0B0F5005F41D10DE0A1
:103EF00041E0D5E902136A68206802F0EEFB206811
:103F0000866846F077062068866034E0D5E90213BB
:103F10006A68206802F0E1FB2068806840F4804015
:103F20002168886027E0EA686968206802F0C6FCBA
:103F30005021206802F0DCFB1DE0EA686968206817
:103F400002F0CFFC6021206802F0D2FB13E0EA68A7
:103F50006968206802F0B2FC4021206802F0C8FBCA
:103F600009E000BF00BF00BF2968206802F0C0FB65
:103F700001E0012700BF00BF012084F83D0000BF21
:103F8000002084F83C0000BF384684E7704710B535
:103F9000044620680069C0F34000D8B12068C068BA
:103FA000C0F34000B0B16FF0020021680861012049
:103FB00020772068806900F0030018B12046FFF7E1
:103FC000E5FF05E0204600F0DDF8204600F091F91D
:103FD0000020207720680069C0F38000D8B12068F5
:103FE000C068C0F38000B0B16FF0040021680861C0
:103FF000022020772068806900F4407018B12046C4
:10400000FFF7C4FF05E0204600F0BCF8204600F0B2
:1040100070F90020207720680069C0F3C000D8B193
:104020002068C068C0F3C000B0B16FF0080021681C
:104030000861042020772068C06900F0030018B1EF
:104040002046FFF7A3FF05E0204600F09BF820463E
:1040500000F04FF90020207720680069C0F30010BD
:10406000D8B12068C068C0F30010B0B16FF0100084
:1040700021680861082020772068C06900F440703A
:1040800018B12046FFF782FF05E0204600F07AF8DD
:10409000204600F02EF9002020772068006900F00B
:1040A000010058B12068C06800F0010030B16FF025
:1040B000010021680861204600F0A2F9206800692B
:1040C000C0F3C01058B12068C068C0F3C01030B150
:1040D0006FF08000216808612046FFF74DFD2068E1
:1040E0000069C0F3801058B12068C068C0F3801028
:1040F00030B16FF0400021680861204600F08CF973
:1041000020680069C0F3401058B12068C068C0F34F
:10411000401030B16FF02000216808612046FFF7A1
:104120002CFD10BD10B586B00446142101A8FCF783
:1041300011FA1149206888421CD100BF002000906C
:104140000E48006840F020000C49086008460068EE
:1041500000F02000009000BF00BF4020019002202E
:1041600002900020039004900320059001A90448C8
:10417000FDF762FE06B010BD004401403038024039
:104180000014024070472DE9F04104460D461646E2
:10419000002700BF94F83C00012802D10220BDE8AE
:1041A000F081012084F83C0000BF36B1042E1BD002
:1041B000082E31D00C2E5ED145E02946206802F051
:1041C000A1FA2068806940F00800216888612068B1
:1041D000806920F00400216888612068806929696D
:1041E00008432168886148E02946206802F0C2FA45
:1041F0002068806940F400602168886120688069D7
:1042000020F480602168886120688069296940EA1B
:1042100001202168886130E02946206802F0E8FA30
:104220002068C06940F008002168C8612068C06942
:1042300020F004002168C8612068C069296908432A
:104240002168C86119E02946206802F00DFB20684A
:10425000C06940F400602168C8612068C06920F42A
:1042600080602168C8612068C069296940EA01202E
:104270002168C86101E0012700BF00BF00BF002026
:1042800084F83C0000BF384689E710B504460CB9F5
:10429000012010BD94F83D0028B9002084F83C00AE
:1042A000204600F025F8022084F83D00211D2068FA
:1042B00002F096F9012084F8460000BF84F83E0021
:1042C00001213F200155402001554120015500BFEB
:1042D00000BF012084F842004320015544200155CD
:1042E0004520015500BF012084F83D000020D0E7A3
:1042F0007047704770B504460D4615B994F83E00F6
:104300000BE0042D02D13F20005D06E0082D02D114
:104310004020005D01E04120005D012801D0012026
:1043200070BD1DB9022084F83E000EE0042D03D1BB
:1043300002213F20015508E0082D03D10221402031
:10434000015502E002214120015501222946206841
:1043500002F0B2F923492068884203D0224920683C
:10436000884201D1012000E0002028B12068406C83
:1043700040F40040216848641A49206888421BD0F4
:104380002068B0F1804F17D018492068884213D0B8
:104390001749206888420FD01649206888420BD000
:1043A00011492068884207D013492068884203D009
:1043B0001249206888420CD12068806800F0070606
:1043C000062E0CD02068006840F0010021680860CB
:1043D00005E02068006840F00100216808600020C6
:1043E0009EE700000000014000040140000400407E
:1043F00000080040000C0040004001400018004050
:1044000010B5044603492068884201D1FEF792F9AD
:1044100010BD0000000400407047704770B50446AE
:10442000002520684069C0F3C01594F83D0021289C
:1044300017D1B5B100BF00BF2168143151E8001F8A
:1044400021F080002168143141E80002002AF3D1F4
:1044500000BF606B10B1606BFDF777FA204602F089
:1044600034FB20684069C0F3801594F83E00222890
:1044700017D1B5B100BF00BF2168143151E8001F4A
:1044800021F040002168143141E80002002AF3D1F4
:1044900000BFA06B10B1A06BFDF757FA204602F0E9
:1044A000CEFA002070BD70472DE9F84F0446206811
:1044B00005682068C668206847694FF00009CA4649
:1044C00005F00F09B9F1000F0AD105F0200038B14D
:1044D00006F0200020B1204602F00AFBBDE8F88F6C
:1044E000B9F1000F7CD007F0010018B906F4907004
:1044F000002875D005F0010030B106F4807018B1C5
:10450000206C40F00100206405F0040030B107F099
:10451000010018B1206C40F00200206405F0020098
:1045200030B107F0010018B1206C40F004002064A5
:1045300005F0080048B106F0200010B907F00100AE
:1045400018B1206C40F008002064206C002846D090
:1045500005F0200028B106F0200010B1204602F03E
:10456000C7FA20684069C0F3801A206C00F0080088
:1045700010B9BAF1000F2DD0204602F060FA206881
:10458000406900F04000402820D100BF00BF2168F2
:10459000143151E8001F21F040002168143141E836
:1045A0000002002AF3D100BFA06B50B17548A16B87
:1045B0000865A06BFDF71FFA88B1A06B016D8847F5
:1045C0000DE02046FFF76FFF09E009E02046FFF706
:1045D0006AFF04E02046FFF766FF002020647DE7C5
:1045E000206B012876D105F01000002872D006F06B
:1045F00010000028FAD000BF00200090206800685A
:10460000009020684068009000BF00BF20684069AB
:1046100000F0400040285ED1A06B006840681FFA9F
:1046200080F8B8F1000F54D0A08D404551DDA4F8BA
:104630002E80A06BC069B0F5807F43D000BF00BF63
:1046400021680C3151E8001F21F4807021680C3181
:1046500041E80002002AF3D100BF00BF00BF21687B
:10466000143151E8001F21F001002168143141E8A4
:104670000002002AF3D100BF00BF00BF216814313F
:1046800051E8001F21F040002168143141E8000288
:10469000002AF3D100BF202084F83E0000202063D0
:1046A00000BF00BF21680C3151E8001F21F010004D
:1046B00021680C3141E80002002AF3D100BFA06B51
:1046C000FDF743F9A08DE28D801A81B22046FFF7F5
:1046D000A4FE03E740E0A08DE18D401A1FFA80F8A8
:1046E000E08DC0B3B8F1000F35D000BF00BF216826
:1046F0000C3151E8001F21F4907021680C3141E821
:104700000002002AF3D100BF00BF00BF21681431AE
:1047100051E8001F21F001002168143141E8000236
:10472000002AF3D100BF202084F83E00002020633F
:1047300000BF00BF21680C3151E8001F21F01000BC
:1047400021680C3141E80002002AF3D100BF414644
:104750002046FFF762FEC1E605F0800030B106F0AA
:10476000800018B1204602F0BDFBB7E605F040001E
:1047700030B106F0400018B1204602F096F9ADE6DF
:1047800000BFABE60B69000810B504460CB9012068
:1047900010BDA06900B100E000BF94F83D0028B949
:1047A000002084F83C00204600F028F8242084F8FB
:1047B0003D002068C06820F400502168C860204691
:1047C00002F012FA2068006920F490402168086124
:1047D0002068406920F02A00216848612068C0688C
:1047E00040F400502168C86000202064202084F834
:1047F0003D0084F83E000020CAE7000010B586B0F6
:104800000446142101A8FBF7A5FECE492068884282
:104810007ED100BF00200090CB48006840F010001F
:10482000C94908600846006800F01000009000BF09
:1048300000BF00BF00200090C3481438006840F05B
:104840000200C149143908600846006800F00200FF
:10485000009000BF00BF00BF002000900846006825
:1048600040F0010008600846006800F00100009078
:1048700000BF00BF80200190022002900020039022
:10488000032004900720059001A9B048FDF7D4FA51
:104890004FF400700190022002900020039003204A
:1048A00004900720059001A9A948FDF7C5FAA94879
:1048B000A94908604FF0006048600021A648816067
:1048C000C1604FF4806101610021416181614FF459
:1048D0008071C161002101624162FDF7C1F908B137
:1048E000FCF7FBF900BF9C48A063846300BF9948B4
:1048F00078309A4908604FF000604860402197483E
:1049000081600021C1604FF480610161002100E0FD
:1049100017E041618161C16101624162FDF7A0F967
:1049200008B1FCF7DAF900BF8C486063846300BF0C
:10493000002205212520FDF7BBFF2520FDF7A8FF5C
:10494000FDE08749206888427DD100BF00200090AB
:104950007D48001F006840F480207B49091F0860E3
:104960000846006800F48020009000BF00BF00BF30
:104970000020009074481438006840F00400724928
:10498000143908600846006800F00400009000BF79
:1049900000BF4FF44060019002200290002003907D
:1049A000032004900720059001A96E48FDF744FA02
:1049B0006D486E4908604FF00060486000216B4808
:1049C0008160C1604FF480610161002141618161BA
:1049D0004FF48071C1614FF44031016200214162A6
:1049E000FDF73EF908B1FCF778F900BF5F48A06316
:1049F000846300BF5C4830305D4908604FF0006060
:104A0000486040215A4881600021C1604FF48061B4
:104A10000161002141618161C16101624162FDF773
:104A20001FF908B1FCF759F900BF5148606384636E
:104A300000BF002205212720FDF73AFF2720FDF7C0
:104A400027FF7CE0FFE74B492068884277D100BF11
:104A5000002000903C48006840F020003A4908607F
:104A60000846006800F02000009000BF00BF00BFB3
:104A70000020009034481438006840F0400032496B
:104A8000143908600846006800F04000009000BF3C
:104A900000BF4FF484400190022002900020039058
:104AA000032004900820059001A93348FDF7C4F9BC
:104AB00028481838314908608005486000212F488F
:104AC0008160C1604FF480610161002141618161B9
:104AD0004FF48071C161002101624162FDF7C0F8AD
:104AE00008B1FCF7FAF800BF2448A063846300BF54
:104AF00018486030224908604FF02060486040212B
:104B00001F4881600021C1604FF480610161002174
:104B100041618161C16101624162FDF7A1F808B1A3
:104B2000FCF7DBF800BF16486063846300BF002217
:104B300005214720FDF7BCFE4720FDF7A9FE06B082
:104B400010BD000000100140443802400004024043
:104B50000000024040640240240D0020840D00202B
:104B6000004800400008024028600240E40D002098
:104B7000440E00200014014000180240A40E002042
:104B8000040F002070B504460D46164694F83E000A
:104B9000202816D105B10EB9012070BD00BF94F8D0
:104BA0003C00012801D10220F7E7012084F83C00F5
:104BB00000BF0020206332462946204602F02AF931
:104BC000EBE70220E9E770477047704700BFFEE758
:104BD000014608684069C0F38020B0B16FF480607E
:104BE0000A68506100200863202081F83D00002001
:104BF00081F83E00086C40F00400086400BF00200B
:104C000081F83C0000BF012070470020FCE7000055
:104C10002DE9F84304460F4615469946DDE9088616
:104C20002068006840F4806021680860206800689F
:104C300040F4807021680860434600224FF0011163
:104C40002046009600F032F960B12068006800F458
:104C50008070B0F5807F02D14FF400702064032093
:104C6000BDE8F88307F0FE0021680861334642463C
:104C70003E49204600F05DF908B10120F0E700BF91
:104C800000200090206840690090206880690090B2
:104C900000BF00BF32464146204600F0ECF950B15B
:104CA000206C042805D12068006840F40070216859
:104CB00008600120D4E7B9F1010F03D1E8B22168FF
:104CC000086117E0C5F307202168086132464146B4
:104CD000204600F0D0F950B1206C042805D120689E
:104CE000006840F40070216808600120B8E7E8B26D
:104CF0002168086132464146204600F0BCF950B1B7
:104D0000206C042805D12068006840F400702168F8
:104D100008600120A4E72068006840F480702168E2
:104D20000860434600224FF001112046009600F033
:104D3000BDF858B12068006800F48070B0F5807F3D
:104D400002D14FF400702064032089E7F8B240F0EC
:104D5000010021680861334642460449204600F0BC
:104D6000E8F808B101207BE7002079E702000100A4
:104D70002DE9F8430446884615469946DDE908675B
:104D80002068006840F48070216808603346002283
:104D90004FF001112046009700F088F860B12068BC
:104DA000006800F48070B0F5807F02D14FF400708D
:104DB00020640320BDE8F88308F0FE002168086144
:104DC0003B4632462149204600F0B3F808B10120A5
:104DD000F0E700BF00200090206840690090206844
:104DE0008069009000BF00BF3A463146204600F07F
:104DF00042F950B1206C042805D12068006840F4C5
:104E00000070216808600120D4E7B9F1010F03D1D7
:104E1000E8B22168086117E0C5F30720216808613E
:104E20003A463146204600F026F950B1206C04285D
:104E300005D12068006840F40070216808600120F6
:104E4000B8E7E8B2216808610020B3E7020001007A
:104E500070B504460D46164620E02046FFF7B8FE22
:104E600008B1012070BD681CC0B1FDF7E5F8801BDA
:104E7000A84200D895B900202063202084F83D0086
:104E8000002084F83E00206C40F02000206400BF29
:104E9000002084F83C0000BF0120E3E7206840695F
:104EA000C0F380000028D8D00020DBE72DE9F041D6
:104EB00004460D4617461E46DDF818801CE0701C9F
:104EC000D0B1FDF7B9F8A0EB0800B04200D89EB908
:104ED00000202063202084F83D00002084F83E005C
:104EE000206C40F02000206400BF002084F83C00CB
:104EF00000BF0120BDE8F081C5F3074001280AD1B9
:104F000020684069A9B20840A9B2884201D10120B5
:104F10000BE0002009E020688069A9B20840A9B22E
:104F2000884201D1012000E00020B842C7D0002013
:104F3000E0E72DE9F04104460D4616461F463DE0E8
:104F400020684069C0F38020E8B12068006840F420
:104F50000070216808606FF480602168486100205B
:104F60002063202084F83D00002084F83E00206C5F
:104F700040F00400206400BF002084F83C0000BF23
:104F80000120BDE8F081701CC0B1FDF755F8C01BD1
:104F9000B04200D896B900202063202084F83D005C
:104FA000002084F83E00206C40F02000206400BF08
:104FB000002084F83C0000BF0120E2E7C5F3074071
:104FC00001280AD120684069A9B20840A9B28842E4
:104FD00001D101200BE0002009E020688069A9B21E
:104FE0000840A9B2884201D1012000E00020002839
:104FF000A6D00020C5E770B504460D46164632E03F
:1050000020684069C0F30010A0B16FF01000216863
:10501000486100202063202084F83D00002084F8AF
:105020003E00206C206400BF002084F83C0000BFDC
:10503000012070BDFDF700F8801BA84200D895B98B
:1050400000202063202084F83D00002084F83E00EA
:10505000206C40F02000206400BF002084F83C0059
:1050600000BF0120E5E720684069C0F380100028F8
:10507000C6D00020DDE770B504460D46164620E098
:105080002046FFF7A5FD08B1012070BD681CC0B126
:10509000FCF7D2FF801BA84200D895B900202063FE
:1050A000202084F83D00002084F83E00206C40F071
:1050B0002000206400BF002084F83C0000BF0120D5
:1050C000E3E720684069C0F3C0100028D8D0002072
:1050D000DBE7000010B52DED048B86B000248EE0D8
:1050E0004B4A111DA1F11000FBF7F2FB9DED030AE5
:1050F00047482438D0ED0A0A30EE200A8DED030A25
:105100009DED040AD0ED0B0A30EE200A8DED040A65
:105110009DED050AD0ED0C0A30EE200A8DED050A52
:105120009DED000AD0ED060A30EE200A8DED000A52
:105130009DED010AD0ED070A30EE200A8DED010A3F
:105140009DED020AD0ED080A30EE200A8DED020A2C
:105150009DED020A10EE101A084605F015F941EC13
:10516000190B9FED2C0B53EC102B05F023F841ECA1
:10517000180B04F0C5FC029040F6B83084423DD1D3
:10518000DDED030A00EE104AB8EEC00A80EE801A88
:105190001F48243880ED031ADDED040A00EE104AA2
:1051A000B8EEC00A80EE801A80ED041ADDED050A23
:1051B00000EE104AB8EEC00A80EE801A80ED051AA3
:1051C000DDED000A00EE104AB8EEC00A80EE801A4B
:1051D00080ED001ADDED010A00EE104AB8EEC00ABB
:1051E00080EE801A80ED011ADDED020A00EE104A11
:1051F000B8EEC00A80EE801A80ED021A641C40F6F8
:10520000B83084427FF76CAF06B0BDEC048B10BDA4
:105210006450002014AE47E17A9423402DED048BB6
:1052200082B0072002F0B8FFFBF73EFAFBF7D6FA90
:1052300002F062FEFFF74EFFC348FBF721FA41F28E
:10524000301041F29413C14A00210090C04803F08D
:1052500062F8BD4A2432111DA1F11000FBF738FBA2
:10526000B949183101F1100002F042FDB64890ED45
:10527000060AB84880ED000AB74880ED000AB74832
:1052800080ED000AB04890ED070AB24880ED010AAF
:10529000B14880ED010AB14880ED010AAA4890EDBD
:1052A000080AAC4880ED020AAB4880ED020AAB4820
:1052B00080ED020A47E1A44A2432111DA1F1100039
:1052C000FBF706FBA048D0ED090AB0EE600A02F039
:1052D0006BFDA14890ED000AA04880ED000A9D48B2
:1052E00090ED000A9C4880ED000A90ED000A9C4871
:1052F000D0ED000A20EE200A9848D0ED000A984828
:1053000090ED011A00EE810A8F48D0ED060A94480C
:1053100090ED021A00EE810A8E4880ED000A8E4858
:1053200090ED010A8D4880ED010A8A4890ED010A4E
:10533000894880ED010A90ED010A8948D0ED000A04
:1053400020EE200A8548D0ED010A854890ED011A2B
:1053500000EE810A7C48D0ED070A814890ED021AE0
:1053600000EE810A7B4880ED010A7B4890ED020A3D
:105370007A4880ED020A774890ED020A764880ED7F
:10538000020A90ED020A7648D0ED000A20EE200ACB
:105390007248D0ED020A724890ED011A00EE810ABF
:1053A0006948D0ED080A6E4890ED021A00EE810AB5
:1053B000684880ED020A90ED000A634880ED060A15
:1053C00090ED083AF0EE432A90ED073AB0EE432A0A
:1053D00090ED063AF0EE431A90ED0C3AB0EE431A17
:1053E00090ED0B3AF0EE430A90ED0A3AB0EE430A24
:1053F000403000F057FC544B3C331A1F111F181D4E
:1054000002F0B6FA504890ED0A1AF0EE410A90ED1B
:105410000D1AB0EE410AFBF769FB4B4890ED0D0AFF
:1054200010EE101A084604F0AFFF41EC190B9FED87
:105430004D0B53EC102B04F095FB41EC180B04F0D2
:105440005FFB414948634948006804F09DFF41EC17
:10545000190B9FED470B53EC102B04F083FB41EC31
:10546000180B04F04DFB4149086043480068401C9C
:1054700041490860344890ED0D0A404880ED000A2B
:10548000314890ED0D0ADFED3E0A30EE200ABCEE09
:10549000C00A10EE100A3B4908802B4890ED0E0A16
:1054A000DFED370A30EE200ABCEEC00A10EE100A1B
:1054B00035490880244890ED0F0ADFED310A30EEBF
:1054C000200ABCEEC00A10EE100A304908801E48BF
:1054D00090ED0C0AF3EE0E0A30EE200ADFED2C0AF6
:1054E00020EE200A2B4880ED000A2B4890ED000AA0
:1054F000F3EE0E0A30EE200ADFED280A20EE200A35
:10550000274880ED000A002003F0B8FE2549086016
:10551000204890ED000ABDEEC00A10EE100A03B25A
:105520001F4890ED000ABDEEC00A10EE100A02B24C
:105530001548008801B21348008800B203F080FCCF
:10554000012002F029FEB6E64050002010A5000818
:10555000F84F0020B4500020A85000209C5000209C
:105560001CA50008691D554D1075EF3E6C0200200A
:10557000F168E388B5F8E43E740200207802002068
:10558000000034437C0200207E02002080020020C4
:105590000000C84284020020B801002000004842F8
:1055A000880200206802002010B50E480E490860ED
:1055B0000320486000210C488160C1604FF4102135
:1055C00001614FF40011416100210176417681763D
:1055D000C17601774177FBF738FF08B1FBF77DFB18
:1055E00010BD0000006400403409002010B50E48D2
:1055F0000E4908600320486000210C488160C160AA
:105600004FF4102101614FF4001141610021017636
:1056100041768176C17601774177FBF716FF08B1B5
:10562000FBF75BFB10BD0000006800405C09002038
:1056300008B500BF002000902E48006840F48000AC
:105640002C4908600846006800F48000009000BF04
:1056500000BF00BF002000900846006840F4001022
:1056600008600846006800F40010009000BF00BF0A
:10567000002205210C20FDF71BF90C20FDF708F98D
:10568000002205210E20FDF713F90E20FDF700F989
:10569000002205213820FDF70BF93820FDF7F8F836
:1056A000002205213920FDF703F93920FDF7F0F834
:1056B000002205213A20FDF7FBF83A20FDF7E8F833
:1056C000002205213B20FDF7F3F83B20FDF7E0F831
:1056D000002205214520FDF7EBF84520FDF7D8F81D
:1056E000002205214620FDF7E3F84620FDF7D0F81B
:1056F00008BD00003038024000B59DB01C2218499A
:1057000016A8FAF7EDFE002116A802F056FD15497D
:1057100008601C2212491C310FA8FAF7E1FE002193
:105720000FA802F04AFD104908601C220C493831CC
:1057300008A8FAF7D5FE002108A802F03EFD0B49A3
:1057400008601C220649543101A8FAF7C9FE00215D
:1057500001A802F032FD064908601DB000BD00003E
:10576000A0A40008A0010020A4010020AC0100209A
:105770009801002000B587B0142102A8FAF7EAFECC
:1057800000BF002001907448006840F00200724998
:1057900008600846006800F00200019000BF00BFEA
:1057A00000BF002001900846006840F040000860FB
:1057B0000846006800F04000019000BF00BF00BF35
:1057C000002001900846006840F00100086008468B
:1057D000006800F00100019000BF00BF00BF002082
:1057E00001900846006840F008000860084600681C
:1057F00000F00800019000BF00BF00BF0020019032
:105800000846006840F0040008600846006800F0A0
:105810000400019000BF00BF00BF002001900846B7
:10582000006840F0800008600846006800F08000D2
:10583000019000BF00BF00BF002001900846006833
:1058400040F0200008600846006800F02000019049
:1058500000BF00BF002289154048FCF7E7FB01228A
:1058600040213F48FCF7E2FB00224FF4E0513D4865
:10587000FCF7DCFB012210213B48FCF7D7FB01229F
:1058800011463A48FCF7D2FB4FF480700290012099
:10589000039004900020059002A93048FCF7CCFA50
:1058A00040200290012003900490059002A92C480A
:1058B000FCF7C2FA4FF4E0500290012003900490EC
:1058C0000020059002A92748FCF7B6FA08200290AC
:1058D0004FF4881003900120049002A92048FCF79F
:1058E000ABFA102002900120039004900220059052
:1058F00002A91D48FCF7A0FA302002904FF40410D2
:1059000003900120049002A91448FCF795FA0120A5
:105910000290039004900220059002A91348FCF71E
:105920008BFA002205210920FCF7C2FF0920FCF7B1
:10593000AFFF002205210A20FCF7BAFF0A20FCF77E
:10594000A7FF002205211720FCF7B2FF1720FCF764
:105950009FFF07B000BD0000303802400008024041
:1059600000180240001C02400000024000040240F7
:1059700010B50B480B4908600B48486000210948E6
:105980008160C1604FF4804101610021416181610A
:10599000C1610162FCF756FB08B1FBF79EF910BD2F
:1059A000005C004084090020801A060010B50F48F2
:1059B0000F4908604FF48270486000210C488160F4
:1059C000C16002210161012141614902816110210F
:1059D000C16100210162416281620A21C162FDF759
:1059E0001DFC08B1FBF779F910BD00000030014043
:1059F000D809002000B587B01C216846FAF7AAFD37
:105A0000154816490860002048600021134881604D
:105A100041F28731C160002101618161FEF708F91F
:105A200008B1FBF75AF90D48FEF72FFC08B1FBF758
:105A300054F9602000900020019002900490002210
:105A400069460648FEF79FFB08B1FBF746F9034895
:105A5000FEF768FB07B000BD00440140100C0020B9
:105A600000B587B000200390049005900690019047
:105A7000029015481549086044F29F1048600021C3
:105A8000124881606321C16000210161416181612F
:105A9000FEF7CEF808B1FBF720F94FF480500390E1
:105AA00003A90A48FEF7ECF908B1FBF716F9002044
:105AB0000190029001A90548FEF760F808B1FBF7D4
:105AC0000CF907B000BD000000000140F00A002002
:105AD00000B587B0002003900490059006900190D7
